{
  "_format": "hh-sol-artifact-1",
  "contractName": "OptimisticRollup",
  "sourceName": "contracts/OptimisticRollup.sol",
  "abi": [
    {
      "inputs": [],
      "stateMutability": "nonpayable",
      "type": "constructor"
    },
    {
      "anonymous": false,
      "inputs": [
        {
          "indexed": true,
          "internalType": "uint256",
          "name": "blockNumber",
          "type": "uint256"
        }
      ],
      "name": "BlockFinalized",
      "type": "event"
    },
    {
      "anonymous": false,
      "inputs": [
        {
          "indexed": true,
          "internalType": "uint256",
          "name": "blockNumber",
          "type": "uint256"
        },
        {
          "indexed": false,
          "internalType": "address",
          "name": "challenger",
          "type": "address"
        }
      ],
      "name": "Challenge",
      "type": "event"
    },
    {
      "anonymous": false,
      "inputs": [
        {
          "indexed": true,
          "internalType": "address",
          "name": "user",
          "type": "address"
        },
        {
          "indexed": false,
          "internalType": "uint256",
          "name": "amount",
          "type": "uint256"
        }
      ],
      "name": "Deposit",
      "type": "event"
    },
    {
      "anonymous": false,
      "inputs": [
        {
          "indexed": true,
          "internalType": "uint256",
          "name": "blockNumber",
          "type": "uint256"
        },
        {
          "indexed": false,
          "internalType": "bytes32",
          "name": "stateRoot",
          "type": "bytes32"
        },
        {
          "indexed": false,
          "internalType": "bytes32",
          "name": "txRoot",
          "type": "bytes32"
        },
        {
          "indexed": false,
          "internalType": "address",
          "name": "operator",
          "type": "address"
        }
      ],
      "name": "RollupBlockSubmitted",
      "type": "event"
    },
    {
      "anonymous": false,
      "inputs": [
        {
          "indexed": true,
          "internalType": "address",
          "name": "user",
          "type": "address"
        },
        {
          "indexed": false,
          "internalType": "uint256",
          "name": "amount",
          "type": "uint256"
        }
      ],
      "name": "WithdrawalProcessed",
      "type": "event"
    },
    {
      "anonymous": false,
      "inputs": [
        {
          "indexed": true,
          "internalType": "address",
          "name": "user",
          "type": "address"
        },
        {
          "indexed": false,
          "internalType": "uint256",
          "name": "amount",
          "type": "uint256"
        },
        {
          "indexed": false,
          "internalType": "bytes32",
          "name": "requestId",
          "type": "bytes32"
        }
      ],
      "name": "WithdrawalRequested",
      "type": "event"
    },
    {
      "inputs": [],
      "name": "CHALLENGE_PERIOD",
      "outputs": [
        {
          "internalType": "uint256",
          "name": "",
          "type": "uint256"
        }
      ],
      "stateMutability": "view",
      "type": "function"
    },
    {
      "inputs": [],
      "name": "OPERATOR_BOND",
      "outputs": [
        {
          "internalType": "uint256",
          "name": "",
          "type": "uint256"
        }
      ],
      "stateMutability": "view",
      "type": "function"
    },
    {
      "inputs": [
        {
          "internalType": "address",
          "name": "",
          "type": "address"
        }
      ],
      "name": "accounts",
      "outputs": [
        {
          "internalType": "uint256",
          "name": "balance",
          "type": "uint256"
        },
        {
          "internalType": "uint256",
          "name": "nonce",
          "type": "uint256"
        }
      ],
      "stateMutability": "view",
      "type": "function"
    },
    {
      "inputs": [
        {
          "internalType": "uint256",
          "name": "blockNum",
          "type": "uint256"
        }
      ],
      "name": "canChallenge",
      "outputs": [
        {
          "internalType": "bool",
          "name": "",
          "type": "bool"
        }
      ],
      "stateMutability": "view",
      "type": "function"
    },
    {
      "inputs": [
        {
          "internalType": "uint256",
          "name": "blockNum",
          "type": "uint256"
        }
      ],
      "name": "canFinalize",
      "outputs": [
        {
          "internalType": "bool",
          "name": "",
          "type": "bool"
        }
      ],
      "stateMutability": "view",
      "type": "function"
    },
    {
      "inputs": [
        {
          "internalType": "bytes32",
          "name": "requestID",
          "type": "bytes32"
        }
      ],
      "name": "canProcessWithdrawal",
      "outputs": [
        {
          "internalType": "bool",
          "name": "",
          "type": "bool"
        }
      ],
      "stateMutability": "view",
      "type": "function"
    },
    {
      "inputs": [
        {
          "internalType": "uint256",
          "name": "blockNum",
          "type": "uint256"
        },
        {
          "internalType": "bytes",
          "name": "proof",
          "type": "bytes"
        }
      ],
      "name": "challengeBlock",
      "outputs": [],
      "stateMutability": "nonpayable",
      "type": "function"
    },
    {
      "inputs": [],
      "name": "currentStateRoot",
      "outputs": [
        {
          "internalType": "bytes32",
          "name": "",
          "type": "bytes32"
        }
      ],
      "stateMutability": "view",
      "type": "function"
    },
    {
      "inputs": [],
      "name": "deposit",
      "outputs": [],
      "stateMutability": "payable",
      "type": "function"
    },
    {
      "inputs": [
        {
          "internalType": "uint256",
          "name": "blockNum",
          "type": "uint256"
        }
      ],
      "name": "finalizeBlock",
      "outputs": [],
      "stateMutability": "nonpayable",
      "type": "function"
    },
    {
      "inputs": [
        {
          "internalType": "address",
          "name": "user",
          "type": "address"
        }
      ],
      "name": "getBalance",
      "outputs": [
        {
          "internalType": "uint256",
          "name": "",
          "type": "uint256"
        }
      ],
      "stateMutability": "view",
      "type": "function"
    },
    {
      "inputs": [],
      "name": "getCurrentState",
      "outputs": [
        {
          "internalType": "bytes32",
          "name": "stateRoot",
          "type": "bytes32"
        },
        {
          "internalType": "uint256",
          "name": "blockNum",
          "type": "uint256"
        }
      ],
      "stateMutability": "view",
      "type": "function"
    },
    {
      "inputs": [
        {
          "internalType": "address",
          "name": "operator",
          "type": "address"
        }
      ],
      "name": "getOperatorBond",
      "outputs": [
        {
          "internalType": "uint256",
          "name": "",
          "type": "uint256"
        }
      ],
      "stateMutability": "view",
      "type": "function"
    },
    {
      "inputs": [
        {
          "internalType": "uint256",
          "name": "blockNum",
          "type": "uint256"
        }
      ],
      "name": "getRollupBlock",
      "outputs": [
        {
          "components": [
            {
              "internalType": "bytes32",
              "name": "stateRoot",
              "type": "bytes32"
            },
            {
              "internalType": "bytes32",
              "name": "txRoot",
              "type": "bytes32"
            },
            {
              "internalType": "uint256",
              "name": "blockNumber",
              "type": "uint256"
            },
            {
              "internalType": "uint256",
              "name": "timestamp",
              "type": "uint256"
            },
            {
              "internalType": "address",
              "name": "operator",
              "type": "address"
            },
            {
              "internalType": "bool",
              "name": "challenged",
              "type": "bool"
            },
            {
              "internalType": "bool",
              "name": "finalized",
              "type": "bool"
            }
          ],
          "internalType": "struct OptimisticRollup.RollupBlock",
          "name": "",
          "type": "tuple"
        }
      ],
      "stateMutability": "view",
      "type": "function"
    },
    {
      "inputs": [
        {
          "internalType": "bytes32",
          "name": "requestId",
          "type": "bytes32"
        }
      ],
      "name": "getWithdrawalRequest",
      "outputs": [
        {
          "components": [
            {
              "internalType": "address",
              "name": "user",
              "type": "address"
            },
            {
              "internalType": "uint256",
              "name": "amount",
              "type": "uint256"
            },
            {
              "internalType": "uint256",
              "name": "rollupBlock",
              "type": "uint256"
            },
            {
              "internalType": "bool",
              "name": "processed",
              "type": "bool"
            }
          ],
          "internalType": "struct OptimisticRollup.WithdrawalRequest",
          "name": "",
          "type": "tuple"
        }
      ],
      "stateMutability": "view",
      "type": "function"
    },
    {
      "inputs": [
        {
          "internalType": "address",
          "name": "",
          "type": "address"
        }
      ],
      "name": "operator_bonds",
      "outputs": [
        {
          "internalType": "uint256",
          "name": "",
          "type": "uint256"
        }
      ],
      "stateMutability": "view",
      "type": "function"
    },
    {
      "inputs": [
        {
          "internalType": "bytes32",
          "name": "requestID",
          "type": "bytes32"
        }
      ],
      "name": "processWithdrawal",
      "outputs": [],
      "stateMutability": "nonpayable",
      "type": "function"
    },
    {
      "inputs": [
        {
          "internalType": "uint256",
          "name": "amount",
          "type": "uint256"
        }
      ],
      "name": "requestWithdrawal",
      "outputs": [],
      "stateMutability": "nonpayable",
      "type": "function"
    },
    {
      "inputs": [],
      "name": "rollupBlockNumber",
      "outputs": [
        {
          "internalType": "uint256",
          "name": "",
          "type": "uint256"
        }
      ],
      "stateMutability": "view",
      "type": "function"
    },
    {
      "inputs": [
        {
          "internalType": "uint256",
          "name": "",
          "type": "uint256"
        }
      ],
      "name": "rollup_blocks",
      "outputs": [
        {
          "internalType": "bytes32",
          "name": "stateRoot",
          "type": "bytes32"
        },
        {
          "internalType": "bytes32",
          "name": "txRoot",
          "type": "bytes32"
        },
        {
          "internalType": "uint256",
          "name": "blockNumber",
          "type": "uint256"
        },
        {
          "internalType": "uint256",
          "name": "timestamp",
          "type": "uint256"
        },
        {
          "internalType": "address",
          "name": "operator",
          "type": "address"
        },
        {
          "internalType": "bool",
          "name": "challenged",
          "type": "bool"
        },
        {
          "internalType": "bool",
          "name": "finalized",
          "type": "bool"
        }
      ],
      "stateMutability": "view",
      "type": "function"
    },
    {
      "inputs": [
        {
          "internalType": "bytes32",
          "name": "newStateRoot",
          "type": "bytes32"
        },
        {
          "internalType": "bytes32",
          "name": "txRoot",
          "type": "bytes32"
        },
        {
          "internalType": "bytes[]",
          "name": "txs",
          "type": "bytes[]"
        }
      ],
      "name": "submitRollupBlock",
      "outputs": [],
      "stateMutability": "payable",
      "type": "function"
    },
    {
      "inputs": [],
      "name": "totalValueLocked",
      "outputs": [
        {
          "internalType": "uint256",
          "name": "",
          "type": "uint256"
        }
      ],
      "stateMutability": "view",
      "type": "function"
    },
    {
      "inputs": [
        {
          "internalType": "bytes32",
          "name": "",
          "type": "bytes32"
        }
      ],
      "name": "withdrawal_requests",
      "outputs": [
        {
          "internalType": "address",
          "name": "user",
          "type": "address"
        },
        {
          "internalType": "uint256",
          "name": "amount",
          "type": "uint256"
        },
        {
          "internalType": "uint256",
          "name": "rollupBlock",
          "type": "uint256"
        },
        {
          "internalType": "bool",
          "name": "processed",
          "type": "bool"
        }
      ],
      "stateMutability": "view",
      "type": "function"
    }
  ],
  "bytecode": "0x608060405234801561001057600080fd5b5060016000819055506040518060400160405280600781526020017f47454e455349530000000000000000000000000000000000000000000000000081525060405160200161005f9190610118565b60405160208183030381529060405280519060200120600181905550600060028190555061013a565b600081519050919050565b600082825260208201905092915050565b60005b838110156100c25780820151818401526020810190506100a7565b60008484015250505050565b6000601f19601f8301169050919050565b60006100ea82610088565b6100f48185610093565b93506101048185602086016100a4565b61010d816100ce565b840191505092915050565b6000602082019050818103600083015261013281846100df565b905092915050565b612c60806101496000396000f3fe6080604052600436106101405760003560e01c80639bd09589116100b6578063d1d14ba01161006f578063d1d14ba014610485578063d700748d146104b0578063e4e2bfe4146104d9578063ec18154e14610516578063f20469d514610541578063f8b2cb4f1461057e57610140565b80639bd09589146103795780639ee679e8146103b9578063ac2eba98146103e2578063b358cb281461040d578063c3a079ed14610450578063d0e30db01461047b57610140565b80635e5c06e2116101085780635e5c06e21461023f5780636ab6802b1461027d5780636f75d0ad146102ba578063724e3312146102e3578063805f9e53146102ff57806385fbbd6e1461033c57610140565b8063114c11371461014557806319e4d25e1461016e578063378aa701146101995780633e7d48ab146101c557806350dca66014610202575b600080fd5b34801561015157600080fd5b5061016c60048036038101906101679190611c14565b6105bb565b005b34801561017a57600080fd5b506101836108e7565b6040516101909190611c50565b60405180910390f35b3480156101a557600080fd5b506101ae6108f3565b6040516101bc929190611c84565b60405180910390f35b3480156101d157600080fd5b506101ec60048036038101906101e79190611cd9565b610904565b6040516101f99190611dc6565b60405180910390f35b34801561020e57600080fd5b5061022960048036038101906102249190611cd9565b6109b6565b6040516102369190611df0565b60405180910390f35b34801561024b57600080fd5b5061026660048036038101906102619190611e37565b610a76565b604051610274929190611e64565b60405180910390f35b34801561028957600080fd5b506102a4600480360381019061029f9190611c14565b610a9a565b6040516102b19190611df0565b60405180910390f35b3480156102c657600080fd5b506102e160048036038101906102dc9190611cd9565b610aae565b005b6102fd60048036038101906102f89190611ef2565b610dd6565b005b34801561030b57600080fd5b5061032660048036038101906103219190611c14565b6110c4565b6040516103339190612003565b60405180910390f35b34801561034857600080fd5b50610363600480360381019061035e9190611e37565b6111a5565b6040516103709190611c50565b60405180910390f35b34801561038557600080fd5b506103a0600480360381019061039b9190611cd9565b6111bd565b6040516103b0949392919061202d565b60405180910390f35b3480156103c557600080fd5b506103e060048036038101906103db9190611c14565b61121a565b005b3480156103ee57600080fd5b506103f761148f565b6040516104049190612072565b60405180910390f35b34801561041957600080fd5b50610434600480360381019061042f9190611c14565b611495565b604051610447979695949392919061208d565b60405180910390f35b34801561045c57600080fd5b50610465611511565b6040516104729190611c50565b60405180910390f35b610483611517565b005b34801561049157600080fd5b5061049a61162c565b6040516104a79190611c50565b60405180910390f35b3480156104bc57600080fd5b506104d760048036038101906104d29190612152565b611632565b005b3480156104e557600080fd5b5061050060048036038101906104fb9190611c14565b611906565b60405161050d9190611df0565b60405180910390f35b34801561052257600080fd5b5061052b61191a565b6040516105389190611c50565b60405180910390f35b34801561054d57600080fd5b5061056860048036038101906105639190611e37565b611920565b6040516105759190611c50565b60405180910390f35b34801561058a57600080fd5b506105a560048036038101906105a09190611e37565b611969565b6040516105b29190611c50565b60405180910390f35b6000600560008381526020019081526020016000209050600073ffffffffffffffffffffffffffffffffffffffff168160040160009054906101000a900473ffffffffffffffffffffffffffffffffffffffff1673ffffffffffffffffffffffffffffffffffffffff1603610665576040517f08c379a000000000000000000000000000000000000000000000000000000000815260040161065c9061220f565b60405180910390fd5b8060040160159054906101000a900460ff16156106b7576040517f08c379a00000000000000000000000000000000000000000000000000000000081526004016106ae9061227b565b60405180910390fd5b8060040160149054906101000a900460ff1615610709576040517f08c379a0000000000000000000000000000000000000000000000000000000008152600401610700906122e7565b60405180910390fd5b61c4e0816002015461071b9190612336565b431161075c576040517f08c379a0000000000000000000000000000000000000000000000000000000008152600401610753906123b6565b60405180910390fd5b60018160040160156101000a81548160ff0219169083151502179055506000600660008360040160009054906101000a900473ffffffffffffffffffffffffffffffffffffffff1673ffffffffffffffffffffffffffffffffffffffff1673ffffffffffffffffffffffffffffffffffffffff1681526020019081526020016000205490506000600660008460040160009054906101000a900473ffffffffffffffffffffffffffffffffffffffff1673ffffffffffffffffffffffffffffffffffffffff1673ffffffffffffffffffffffffffffffffffffffff168152602001908152602001600020819055508160040160009054906101000a900473ffffffffffffffffffffffffffffffffffffffff1673ffffffffffffffffffffffffffffffffffffffff166108fc829081150290604051600060405180830381858888f193505050501580156108b4573d6000803e3d6000fd5b50827f47d4d4384c002640dfcb08b263747e39c35374f3fd22e7ef7dff1bed39d0159d60405160405180910390a2505050565b670de0b6b3a764000081565b600080600154600254915091509091565b61090c611b37565b600760008381526020019081526020016000206040518060800160405290816000820160009054906101000a900473ffffffffffffffffffffffffffffffffffffffff1673ffffffffffffffffffffffffffffffffffffffff1673ffffffffffffffffffffffffffffffffffffffff16815260200160018201548152602001600282015481526020016003820160009054906101000a900460ff1615151515815250509050919050565b600080600760008481526020019081526020016000209050600073ffffffffffffffffffffffffffffffffffffffff168160000160009054906101000a900473ffffffffffffffffffffffffffffffffffffffff1673ffffffffffffffffffffffffffffffffffffffff1614158015610a3e57508060030160009054906101000a900460ff16155b8015610a6e5750600560008260020154815260200190815260200160002060040160159054906101000a900460ff165b915050919050565b60046020528060005260406000206000915090508060000154908060010154905082565b6000610aa78260006119b5565b9050919050565b610ab6611aa3565b6000600760008381526020019081526020016000209050600073ffffffffffffffffffffffffffffffffffffffff168160000160009054906101000a900473ffffffffffffffffffffffffffffffffffffffff1673ffffffffffffffffffffffffffffffffffffffff1603610b60576040517f08c379a0000000000000000000000000000000000000000000000000000000008152600401610b5790612422565b60405180910390fd5b8060030160009054906101000a900460ff1615610bb2576040517f08c379a0000000000000000000000000000000000000000000000000000000008152600401610ba99061248e565b60405180910390fd5b3373ffffffffffffffffffffffffffffffffffffffff168160000160009054906101000a900473ffffffffffffffffffffffffffffffffffffffff1673ffffffffffffffffffffffffffffffffffffffff1614610c44576040517f08c379a0000000000000000000000000000000000000000000000000000000008152600401610c3b906124fa565b60405180910390fd5b600560008260020154815260200190815260200160002060040160159054906101000a900460ff16610cab576040517f08c379a0000000000000000000000000000000000000000000000000000000008152600401610ca290612566565b60405180910390fd5b60018160030160006101000a81548160ff021916908315150217905550806001015460036000828254610cde9190612586565b925050819055508060000160009054906101000a900473ffffffffffffffffffffffffffffffffffffffff1673ffffffffffffffffffffffffffffffffffffffff166108fc82600101549081150290604051600060405180830381858888f19350505050158015610d53573d6000803e3d6000fd5b508060000160009054906101000a900473ffffffffffffffffffffffffffffffffffffffff1673ffffffffffffffffffffffffffffffffffffffff167f5abb0fc89def2ee3226cc48f5621ee8e2b45f6dcc7898d2bdb5d480533c32bc08260010154604051610dc29190611c50565b60405180910390a250610dd3611af2565b50565b670de0b6b3a7640000341015610e21576040517f08c379a0000000000000000000000000000000000000000000000000000000008152600401610e1890612606565b60405180910390fd5b6000801b8403610e66576040517f08c379a0000000000000000000000000000000000000000000000000000000008152600401610e5d90612672565b60405180910390fd5b6000801b8303610eab576040517f08c379a0000000000000000000000000000000000000000000000000000000008152600401610ea2906126de565b60405180910390fd5b610eb6838383611afc565b610ef5576040517f08c379a0000000000000000000000000000000000000000000000000000000008152600401610eec906126de565b60405180910390fd5b60026000815480929190610f08906126fe565b91905055506040518060e001604052808581526020018481526020014381526020014281526020013373ffffffffffffffffffffffffffffffffffffffff168152602001600015158152602001600015158152506005600060025481526020019081526020016000206000820151816000015560208201518160010155604082015181600201556060820151816003015560808201518160040160006101000a81548173ffffffffffffffffffffffffffffffffffffffff021916908373ffffffffffffffffffffffffffffffffffffffff16021790555060a08201518160040160146101000a81548160ff02191690831515021790555060c08201518160040160156101000a81548160ff02191690831515021790555090505034600660003373ffffffffffffffffffffffffffffffffffffffff1673ffffffffffffffffffffffffffffffffffffffff16815260200190815260200160002060008282546110729190612336565b92505081905550836001819055506002547f3358253b927089eac447248460dea914f7c305d0aa4999ca52e2266a05d8da268585336040516110b693929190612746565b60405180910390a250505050565b6110cc611b77565b600560008381526020019081526020016000206040518060e0016040529081600082015481526020016001820154815260200160028201548152602001600382015481526020016004820160009054906101000a900473ffffffffffffffffffffffffffffffffffffffff1673ffffffffffffffffffffffffffffffffffffffff1673ffffffffffffffffffffffffffffffffffffffff1681526020016004820160149054906101000a900460ff161515151581526020016004820160159054906101000a900460ff1615151515815250509050919050565b60066020528060005260406000206000915090505481565b60076020528060005260406000206000915090508060000160009054906101000a900473ffffffffffffffffffffffffffffffffffffffff16908060010154908060020154908060030160009054906101000a900460ff16905084565b80600460003373ffffffffffffffffffffffffffffffffffffffff1673ffffffffffffffffffffffffffffffffffffffff16815260200190815260200160002060000154101561129f576040517f08c379a0000000000000000000000000000000000000000000000000000000008152600401611296906127c9565b60405180910390fd5b600081116112e2576040517f08c379a00000000000000000000000000000000000000000000000000000000081526004016112d990612835565b60405180910390fd5b60003382600254426040516020016112fd9493929190612855565b60405160208183030381529060405280519060200120905060405180608001604052803373ffffffffffffffffffffffffffffffffffffffff1681526020018381526020016002548152602001600015158152506007600083815260200190815260200160002060008201518160000160006101000a81548173ffffffffffffffffffffffffffffffffffffffff021916908373ffffffffffffffffffffffffffffffffffffffff160217905550602082015181600101556040820151816002015560608201518160030160006101000a81548160ff02191690831515021790555090505081600460003373ffffffffffffffffffffffffffffffffffffffff1673ffffffffffffffffffffffffffffffffffffffff16815260200190815260200160002060000160008282546114349190612586565b925050819055503373ffffffffffffffffffffffffffffffffffffffff167f4c7560ade96539004d62355a0c96b508c1787ea0839d9cd4c69940a80f587bf9838360405161148392919061289a565b60405180910390a25050565b60015481565b60056020528060005260406000206000915090508060000154908060010154908060020154908060030154908060040160009054906101000a900473ffffffffffffffffffffffffffffffffffffffff16908060040160149054906101000a900460ff16908060040160159054906101000a900460ff16905087565b61c4e081565b61151f611aa3565b60003411611562576040517f08c379a00000000000000000000000000000000000000000000000000000000081526004016115599061290f565b60405180910390fd5b34600460003373ffffffffffffffffffffffffffffffffffffffff1673ffffffffffffffffffffffffffffffffffffffff16815260200190815260200160002060000160008282546115b49190612336565b9250508190555034600360008282546115cd9190612336565b925050819055503373ffffffffffffffffffffffffffffffffffffffff167fe1fffcc4923d04b559f4d29a8bfc6cda04eb5b0d3c460751c2402c5c5cc9109c3460405161161a9190611c50565b60405180910390a261162a611af2565b565b60025481565b6000600560008581526020019081526020016000209050600073ffffffffffffffffffffffffffffffffffffffff168160040160009054906101000a900473ffffffffffffffffffffffffffffffffffffffff1673ffffffffffffffffffffffffffffffffffffffff16036116dc576040517f08c379a00000000000000000000000000000000000000000000000000000000081526004016116d39061220f565b60405180910390fd5b8060040160159054906101000a900460ff161561172e576040517f08c379a00000000000000000000000000000000000000000000000000000000081526004016117259061227b565b60405180910390fd5b8060040160149054906101000a900460ff1615611780576040517f08c379a00000000000000000000000000000000000000000000000000000000081526004016117779061297b565b60405180910390fd5b60018160040160146101000a81548160ff0219169083151502179055506000600660008360040160009054906101000a900473ffffffffffffffffffffffffffffffffffffffff1673ffffffffffffffffffffffffffffffffffffffff1673ffffffffffffffffffffffffffffffffffffffff1681526020019081526020016000205490506000600660008460040160009054906101000a900473ffffffffffffffffffffffffffffffffffffffff1673ffffffffffffffffffffffffffffffffffffffff1673ffffffffffffffffffffffffffffffffffffffff16815260200190815260200160002081905550600060028261187d91906129ca565b90503373ffffffffffffffffffffffffffffffffffffffff166108fc829081150290604051600060405180830381858888f193505050501580156118c5573d6000803e3d6000fd5b50857fd6afd57925b5ce4daf6d9ddff4fc59c20ccf13fcce4bc43b44dada5b93ad392d336040516118f691906129fb565b60405180910390a2505050505050565b60006119138260016119b5565b9050919050565b60035481565b6000600660008373ffffffffffffffffffffffffffffffffffffffff1673ffffffffffffffffffffffffffffffffffffffff168152602001908152602001600020549050919050565b6000600460008373ffffffffffffffffffffffffffffffffffffffff1673ffffffffffffffffffffffffffffffffffffffff168152602001908152602001600020600001549050919050565b6000806005600085815260200190815260200160002090506000836119ee5761c4e082600201546119e69190612336565b431115611a03565b61c4e08260020154611a009190612336565b43115b9050600073ffffffffffffffffffffffffffffffffffffffff168260040160009054906101000a900473ffffffffffffffffffffffffffffffffffffffff1673ffffffffffffffffffffffffffffffffffffffff1614158015611a7557508160040160159054906101000a900460ff16155b8015611a9057508160040160149054906101000a900460ff16155b8015611a995750805b9250505092915050565b600260005403611ae8576040517f08c379a0000000000000000000000000000000000000000000000000000000008152600401611adf90612a62565b60405180910390fd5b6002600081905550565b6001600081905550565b6000808383604051602001611b12929190612c06565b6040516020818303038152906040528051906020012090508481149150509392505050565b6040518060800160405280600073ffffffffffffffffffffffffffffffffffffffff16815260200160008152602001600081526020016000151581525090565b6040518060e0016040528060008019168152602001600080191681526020016000815260200160008152602001600073ffffffffffffffffffffffffffffffffffffffff1681526020016000151581526020016000151581525090565b600080fd5b600080fd5b6000819050919050565b611bf181611bde565b8114611bfc57600080fd5b50565b600081359050611c0e81611be8565b92915050565b600060208284031215611c2a57611c29611bd4565b5b6000611c3884828501611bff565b91505092915050565b611c4a81611bde565b82525050565b6000602082019050611c656000830184611c41565b92915050565b6000819050919050565b611c7e81611c6b565b82525050565b6000604082019050611c996000830185611c75565b611ca66020830184611c41565b9392505050565b611cb681611c6b565b8114611cc157600080fd5b50565b600081359050611cd381611cad565b92915050565b600060208284031215611cef57611cee611bd4565b5b6000611cfd84828501611cc4565b91505092915050565b600073ffffffffffffffffffffffffffffffffffffffff82169050919050565b6000611d3182611d06565b9050919050565b611d4181611d26565b82525050565b611d5081611bde565b82525050565b60008115159050919050565b611d6b81611d56565b82525050565b608082016000820151611d876000850182611d38565b506020820151611d9a6020850182611d47565b506040820151611dad6040850182611d47565b506060820151611dc06060850182611d62565b50505050565b6000608082019050611ddb6000830184611d71565b92915050565b611dea81611d56565b82525050565b6000602082019050611e056000830184611de1565b92915050565b611e1481611d26565b8114611e1f57600080fd5b50565b600081359050611e3181611e0b565b92915050565b600060208284031215611e4d57611e4c611bd4565b5b6000611e5b84828501611e22565b91505092915050565b6000604082019050611e796000830185611c41565b611e866020830184611c41565b9392505050565b600080fd5b600080fd5b600080fd5b60008083601f840112611eb257611eb1611e8d565b5b8235905067ffffffffffffffff811115611ecf57611ece611e92565b5b602083019150836020820283011115611eeb57611eea611e97565b5b9250929050565b60008060008060608587031215611f0c57611f0b611bd4565b5b6000611f1a87828801611cc4565b9450506020611f2b87828801611cc4565b935050604085013567ffffffffffffffff811115611f4c57611f4b611bd9565b5b611f5887828801611e9c565b925092505092959194509250565b611f6f81611c6b565b82525050565b60e082016000820151611f8b6000850182611f66565b506020820151611f9e6020850182611f66565b506040820151611fb16040850182611d47565b506060820151611fc46060850182611d47565b506080820151611fd76080850182611d38565b5060a0820151611fea60a0850182611d62565b5060c0820151611ffd60c0850182611d62565b50505050565b600060e0820190506120186000830184611f75565b92915050565b61202781611d26565b82525050565b6000608082019050612042600083018761201e565b61204f6020830186611c41565b61205c6040830185611c41565b6120696060830184611de1565b95945050505050565b60006020820190506120876000830184611c75565b92915050565b600060e0820190506120a2600083018a611c75565b6120af6020830189611c75565b6120bc6040830188611c41565b6120c96060830187611c41565b6120d6608083018661201e565b6120e360a0830185611de1565b6120f060c0830184611de1565b98975050505050505050565b60008083601f84011261211257612111611e8d565b5b8235905067ffffffffffffffff81111561212f5761212e611e92565b5b60208301915083600182028301111561214b5761214a611e97565b5b9250929050565b60008060006040848603121561216b5761216a611bd4565b5b600061217986828701611bff565b935050602084013567ffffffffffffffff81111561219a57612199611bd9565b5b6121a6868287016120fc565b92509250509250925092565b600082825260208201905092915050565b7f426c6f636b20646f6573206e6f74206578697374000000000000000000000000600082015250565b60006121f96014836121b2565b9150612204826121c3565b602082019050919050565b60006020820190508181036000830152612228816121ec565b9050919050565b7f426c6f636b20616c72656164792066696e616c697a6564000000000000000000600082015250565b60006122656017836121b2565b91506122708261222f565b602082019050919050565b6000602082019050818103600083015261229481612258565b9050919050565b7f426c6f636b20776173206368616c6c656e676564000000000000000000000000600082015250565b60006122d16014836121b2565b91506122dc8261229b565b602082019050919050565b60006020820190508181036000830152612300816122c4565b9050919050565b7f4e487b7100000000000000000000000000000000000000000000000000000000600052601160045260246000fd5b600061234182611bde565b915061234c83611bde565b925082820190508082111561236457612363612307565b5b92915050565b7f4368616c6c656e676520706572696f64206e6f74206578706972656400000000600082015250565b60006123a0601c836121b2565b91506123ab8261236a565b602082019050919050565b600060208201905081810360008301526123cf81612393565b9050919050565b7f496e76616c6964207769746864726177616c2072657175657374000000000000600082015250565b600061240c601a836121b2565b9150612417826123d6565b602082019050919050565b6000602082019050818103600083015261243b816123ff565b9050919050565b7f5769746864726177616c20616c72656164792070726f63657373656400000000600082015250565b6000612478601c836121b2565b915061248382612442565b602082019050919050565b600060208201905081810360008301526124a78161246b565b9050919050565b7f4e6f7420796f7572207769746864726177616c00000000000000000000000000600082015250565b60006124e46013836121b2565b91506124ef826124ae565b602082019050919050565b60006020820190508181036000830152612513816124d7565b9050919050565b7f526f6c6c757020626c6f636b206e6f742066696e616c697a6564000000000000600082015250565b6000612550601a836121b2565b915061255b8261251a565b602082019050919050565b6000602082019050818103600083015261257f81612543565b9050919050565b600061259182611bde565b915061259c83611bde565b92508282039050818111156125b4576125b3612307565b5b92915050565b7f496e73756666696369656e7420626f6e64000000000000000000000000000000600082015250565b60006125f06011836121b2565b91506125fb826125ba565b602082019050919050565b6000602082019050818103600083015261261f816125e3565b9050919050565b7f496e76616c696420737461746520726f6f740000000000000000000000000000600082015250565b600061265c6012836121b2565b915061266782612626565b602082019050919050565b6000602082019050818103600083015261268b8161264f565b9050919050565b7f496e76616c696420747820726f6f740000000000000000000000000000000000600082015250565b60006126c8600f836121b2565b91506126d382612692565b602082019050919050565b600060208201905081810360008301526126f7816126bb565b9050919050565b600061270982611bde565b91507fffffffffffffffffffffffffffffffffffffffffffffffffffffffffffffffff820361273b5761273a612307565b5b600182019050919050565b600060608201905061275b6000830186611c75565b6127686020830185611c75565b612775604083018461201e565b949350505050565b7f496e73756666696369656e742062616c616e6365000000000000000000000000600082015250565b60006127b36014836121b2565b91506127be8261277d565b602082019050919050565b600060208201905081810360008301526127e2816127a6565b9050919050565b7f416d6f756e74206d75737420626520706f736974697665000000000000000000600082015250565b600061281f6017836121b2565b915061282a826127e9565b602082019050919050565b6000602082019050818103600083015261284e81612812565b9050919050565b600060808201905061286a600083018761201e565b6128776020830186611c41565b6128846040830185611c41565b6128916060830184611c41565b95945050505050565b60006040820190506128af6000830185611c41565b6128bc6020830184611c75565b9392505050565b7f4572726f723a204e6f2045544820746f206265206465706f7369746564000000600082015250565b60006128f9601d836121b2565b9150612904826128c3565b602082019050919050565b60006020820190508181036000830152612928816128ec565b9050919050565b7f426c6f636b20616c7265616479206368616c6c656e6765640000000000000000600082015250565b60006129656018836121b2565b91506129708261292f565b602082019050919050565b6000602082019050818103600083015261299481612958565b9050919050565b7f4e487b7100000000000000000000000000000000000000000000000000000000600052601260045260246000fd5b60006129d582611bde565b91506129e083611bde565b9250826129f0576129ef61299b565b5b828204905092915050565b6000602082019050612a10600083018461201e565b92915050565b7f5265656e7472616e637947756172643a207265656e7472616e742063616c6c00600082015250565b6000612a4c601f836121b2565b9150612a5782612a16565b602082019050919050565b60006020820190508181036000830152612a7b81612a3f565b9050919050565b600082825260208201905092915050565b6000819050919050565b600082825260208201905092915050565b82818337600083830152505050565b6000601f19601f8301169050919050565b6000612ada8385612a9d565b9350612ae7838584612aae565b612af083612abd565b840190509392505050565b6000612b08848484612ace565b90509392505050565b600080fd5b600080fd5b600080fd5b60008083356001602003843603038112612b3d57612b3c612b1b565b5b83810192508235915060208301925067ffffffffffffffff821115612b6557612b64612b11565b5b600182023603831315612b7b57612b7a612b16565b5b509250929050565b6000602082019050919050565b6000612b9c8385612a82565b935083602084028501612bae84612a93565b8060005b87811015612bf4578484038952612bc98284612b20565b612bd4868284612afb565b9550612bdf84612b83565b935060208b019a505050600181019050612bb2565b50829750879450505050509392505050565b60006020820190508181036000830152612c21818486612b90565b9050939250505056fea264697066735822122051ef68bc8f8cc465c06398ca848fbdf44cf7f8523d24390fb17133e87949ed8e64736f6c634300081c0033",
  "linkReferences": {},
  "deployedLinkReferences": {}
}